{
  "contractName": "Donation",
  "abi": [
    {
      "inputs": [],
      "stateMutability": "nonpayable",
      "type": "constructor"
    },
    {
      "anonymous": false,
      "inputs": [
        {
          "indexed": false,
          "internalType": "uint256",
          "name": "value",
          "type": "uint256"
        }
      ],
      "name": "donated",
      "type": "event"
    },
    {
      "inputs": [
        {
          "internalType": "address",
          "name": "",
          "type": "address"
        }
      ],
      "name": "donationByAddress",
      "outputs": [
        {
          "internalType": "uint256",
          "name": "",
          "type": "uint256"
        }
      ],
      "stateMutability": "view",
      "type": "function",
      "constant": true
    },
    {
      "inputs": [],
      "name": "owner",
      "outputs": [
        {
          "internalType": "address",
          "name": "",
          "type": "address"
        }
      ],
      "stateMutability": "view",
      "type": "function",
      "constant": true
    },
    {
      "inputs": [],
      "name": "fund",
      "outputs": [],
      "stateMutability": "payable",
      "type": "function",
      "payable": true
    },
    {
      "inputs": [],
      "name": "getBalance",
      "outputs": [
        {
          "internalType": "uint256",
          "name": "",
          "type": "uint256"
        }
      ],
      "stateMutability": "view",
      "type": "function",
      "constant": true
    },
    {
      "inputs": [],
      "name": "withdraw",
      "outputs": [],
      "stateMutability": "payable",
      "type": "function",
      "payable": true
    }
  ],
  "bytecode": "0x6080604052600060025534801561001557600080fd5b50336000806101000a81548173ffffffffffffffffffffffffffffffffffffffff021916908373ffffffffffffffffffffffffffffffffffffffff160217905550610348806100656000396000f3fe60806040526004361061004a5760003560e01c806312065fe01461004f57806323175c941461007a5780633ccfd60b146100df5780638da5cb5b146100e9578063b60d42881461012a575b600080fd5b34801561005b57600080fd5b50610064610134565b6040518082815260200191505060405180910390f35b34801561008657600080fd5b506100c96004803603602081101561009d57600080fd5b81019080803573ffffffffffffffffffffffffffffffffffffffff16906020019092919050505061013c565b6040518082815260200191505060405180910390f35b6100e7610154565b005b3480156100f557600080fd5b506100fe61028f565b604051808273ffffffffffffffffffffffffffffffffffffffff16815260200191505060405180910390f35b6101326102b3565b005b600047905090565b60016020528060005260406000206000915090505481565b60008054906101000a900473ffffffffffffffffffffffffffffffffffffffff1673ffffffffffffffffffffffffffffffffffffffff163373ffffffffffffffffffffffffffffffffffffffff16146101ac57600080fd5b600060603373ffffffffffffffffffffffffffffffffffffffff164760405180600001905060006040518083038185875af1925050503d806000811461020e576040519150601f19603f3d011682016040523d82523d6000602084013e610213565b606091505b50915091508161028b576040517f08c379a00000000000000000000000000000000000000000000000000000000081526004018080602001828103825260128152602001807f4661696c656420746f207769746864726177000000000000000000000000000081525060200191505060405180910390fd5b5050565b60008054906101000a900473ffffffffffffffffffffffffffffffffffffffff1681565b34600160003373ffffffffffffffffffffffffffffffffffffffff1673ffffffffffffffffffffffffffffffffffffffff168152602001908152602001600020600082825401925050819055503460026000828254019250508190555056fea26469706673582212209027248318721853d95463facbebf5955a94e4cdfb84b8f8ece01d3d7ced9a6b64736f6c634300060c0033",
  "immutableReferences": {},
  "source": "//SPDX-License-Identifier: MIT\n\npragma solidity >=0.6.6 <0.9.0;\n\ncontract Donation {\n    address public owner;\n    mapping(address => uint) public donationByAddress;\n    uint256 total = 0;\n    event donated(uint value);\n    \n    constructor() public {\n        owner = msg.sender;\n    }\n\n    function fund() public payable {\n        donationByAddress[msg.sender] += msg.value;\n        total += msg.value;\n    }\n    \n    function getBalance() public view returns (uint) {\n        return address(this).balance;\n    }\n\n    modifier onlyOwner {\n        require (msg.sender == owner);\n        _;\n    }\n\n    function withdraw() payable onlyOwner public {\n        (bool sent, bytes memory data) = msg.sender.call{value: address(this).balance}(\"\");\n        require(sent, \"Failed to withdraw\");\n    }\n}",
  "sourcePath": "C:\\Users\\Gabriel\\Documents\\learning-blockchain\\foton-donation\\contracts\\Donation.sol",
  "compiler": {
    "name": "solc",
    "version": "0.6.12+commit.27d51765.Emscripten.clang"
  },
  "schemaVersion": "3.4.3",
  "updatedAt": "2021-10-04T18:03:47.496Z",
  "networkType": "ethereum",
  "devdoc": {
    "kind": "dev",
    "methods": {},
    "version": 1
  },
  "userdoc": {
    "kind": "user",
    "methods": {},
    "version": 1
  }
}