{
  "contractName": "Donation",
  "abi": [
    {
      "inputs": [],
      "stateMutability": "nonpayable",
      "type": "constructor"
    },
    {
      "anonymous": false,
      "inputs": [
        {
          "indexed": true,
          "internalType": "address",
          "name": "previousOwner",
          "type": "address"
        },
        {
          "indexed": true,
          "internalType": "address",
          "name": "newOwner",
          "type": "address"
        }
      ],
      "name": "OwnershipTransferred",
      "type": "event"
    },
    {
      "inputs": [
        {
          "internalType": "address",
          "name": "",
          "type": "address"
        }
      ],
      "name": "donationByAddress",
      "outputs": [
        {
          "internalType": "uint256",
          "name": "",
          "type": "uint256"
        }
      ],
      "stateMutability": "view",
      "type": "function",
      "constant": true
    },
    {
      "inputs": [],
      "name": "owner",
      "outputs": [
        {
          "internalType": "address",
          "name": "",
          "type": "address"
        }
      ],
      "stateMutability": "view",
      "type": "function",
      "constant": true
    },
    {
      "inputs": [],
      "name": "renounceOwnership",
      "outputs": [],
      "stateMutability": "nonpayable",
      "type": "function"
    },
    {
      "inputs": [],
      "name": "totalDonated",
      "outputs": [
        {
          "internalType": "uint256",
          "name": "",
          "type": "uint256"
        }
      ],
      "stateMutability": "view",
      "type": "function",
      "constant": true
    },
    {
      "inputs": [
        {
          "internalType": "address",
          "name": "newOwner",
          "type": "address"
        }
      ],
      "name": "transferOwnership",
      "outputs": [],
      "stateMutability": "nonpayable",
      "type": "function"
    },
    {
      "inputs": [],
      "name": "fund",
      "outputs": [],
      "stateMutability": "payable",
      "type": "function",
      "payable": true
    },
    {
      "inputs": [],
      "name": "getBalance",
      "outputs": [
        {
          "internalType": "uint256",
          "name": "",
          "type": "uint256"
        }
      ],
      "stateMutability": "view",
      "type": "function",
      "constant": true
    },
    {
      "inputs": [],
      "name": "withdraw",
      "outputs": [],
      "stateMutability": "payable",
      "type": "function",
      "payable": true
    }
  ],
  "bytecode": "0x608060405234801561001057600080fd5b5061002d61002261003a60201b60201c565b61004260201b60201c565b6000600281905550610106565b600033905090565b60008060009054906101000a900473ffffffffffffffffffffffffffffffffffffffff169050816000806101000a81548173ffffffffffffffffffffffffffffffffffffffff021916908373ffffffffffffffffffffffffffffffffffffffff1602179055508173ffffffffffffffffffffffffffffffffffffffff168173ffffffffffffffffffffffffffffffffffffffff167f8be0079c531659141344cd1fd0a4f28419497f9722a3daafe3b4186f6b6457e060405160405180910390a35050565b610935806101156000396000f3fe60806040526004361061007a5760003560e01c8063715018a61161004e578063715018a61461011c5780638da5cb5b14610133578063b60d42881461015e578063f2fde38b146101685761007a565b8062b370441461007f57806312065fe0146100aa57806323175c94146100d55780633ccfd60b14610112575b600080fd5b34801561008b57600080fd5b50610094610191565b6040516100a191906105e4565b60405180910390f35b3480156100b657600080fd5b506100bf610197565b6040516100cc91906105e4565b60405180910390f35b3480156100e157600080fd5b506100fc60048036038101906100f79190610662565b61019f565b60405161010991906105e4565b60405180910390f35b61011a6101b7565b005b34801561012857600080fd5b506101316102e5565b005b34801561013f57600080fd5b5061014861036d565b604051610155919061069e565b60405180910390f35b610166610396565b005b34801561017457600080fd5b5061018f600480360381019061018a9190610662565b610407565b005b60025481565b600047905090565b60016020528060005260406000206000915090505481565b6101bf6104ff565b73ffffffffffffffffffffffffffffffffffffffff166101dd61036d565b73ffffffffffffffffffffffffffffffffffffffff1614610233576040517f08c379a000000000000000000000000000000000000000000000000000000000815260040161022a90610716565b60405180910390fd5b6000803373ffffffffffffffffffffffffffffffffffffffff164760405161025a90610767565b60006040518083038185875af1925050503d8060008114610297576040519150601f19603f3d011682016040523d82523d6000602084013e61029c565b606091505b5091509150816102e1576040517f08c379a00000000000000000000000000000000000000000000000000000000081526004016102d8906107c8565b60405180910390fd5b5050565b6102ed6104ff565b73ffffffffffffffffffffffffffffffffffffffff1661030b61036d565b73ffffffffffffffffffffffffffffffffffffffff1614610361576040517f08c379a000000000000000000000000000000000000000000000000000000000815260040161035890610716565b60405180910390fd5b61036b6000610507565b565b60008060009054906101000a900473ffffffffffffffffffffffffffffffffffffffff16905090565b34600160003373ffffffffffffffffffffffffffffffffffffffff1673ffffffffffffffffffffffffffffffffffffffff16815260200190815260200160002060008282546103e59190610817565b9250508190555034600260008282546103fe9190610817565b92505081905550565b61040f6104ff565b73ffffffffffffffffffffffffffffffffffffffff1661042d61036d565b73ffffffffffffffffffffffffffffffffffffffff1614610483576040517f08c379a000000000000000000000000000000000000000000000000000000000815260040161047a90610716565b60405180910390fd5b600073ffffffffffffffffffffffffffffffffffffffff168173ffffffffffffffffffffffffffffffffffffffff1614156104f3576040517f08c379a00000000000000000000000000000000000000000000000000000000081526004016104ea906108df565b60405180910390fd5b6104fc81610507565b50565b600033905090565b60008060009054906101000a900473ffffffffffffffffffffffffffffffffffffffff169050816000806101000a81548173ffffffffffffffffffffffffffffffffffffffff021916908373ffffffffffffffffffffffffffffffffffffffff1602179055508173ffffffffffffffffffffffffffffffffffffffff168173ffffffffffffffffffffffffffffffffffffffff167f8be0079c531659141344cd1fd0a4f28419497f9722a3daafe3b4186f6b6457e060405160405180910390a35050565b6000819050919050565b6105de816105cb565b82525050565b60006020820190506105f960008301846105d5565b92915050565b600080fd5b600073ffffffffffffffffffffffffffffffffffffffff82169050919050565b600061062f82610604565b9050919050565b61063f81610624565b811461064a57600080fd5b50565b60008135905061065c81610636565b92915050565b600060208284031215610678576106776105ff565b5b60006106868482850161064d565b91505092915050565b61069881610624565b82525050565b60006020820190506106b3600083018461068f565b92915050565b600082825260208201905092915050565b7f4f776e61626c653a2063616c6c6572206973206e6f7420746865206f776e6572600082015250565b60006107006020836106b9565b915061070b826106ca565b602082019050919050565b6000602082019050818103600083015261072f816106f3565b9050919050565b600081905092915050565b50565b6000610751600083610736565b915061075c82610741565b600082019050919050565b600061077282610744565b9150819050919050565b7f4661696c656420746f2077697468647261770000000000000000000000000000600082015250565b60006107b26012836106b9565b91506107bd8261077c565b602082019050919050565b600060208201905081810360008301526107e1816107a5565b9050919050565b7f4e487b7100000000000000000000000000000000000000000000000000000000600052601160045260246000fd5b6000610822826105cb565b915061082d836105cb565b9250827fffffffffffffffffffffffffffffffffffffffffffffffffffffffffffffffff03821115610862576108616107e8565b5b828201905092915050565b7f4f776e61626c653a206e6577206f776e657220697320746865207a65726f206160008201527f6464726573730000000000000000000000000000000000000000000000000000602082015250565b60006108c96026836106b9565b91506108d48261086d565b604082019050919050565b600060208201905081810360008301526108f8816108bc565b905091905056fea264697066735822122097728b2f600c20be4253824537980e00cd7161d59c586d24186c02e19e855ef364736f6c63430008090033",
  "immutableReferences": {},
  "source": "//SPDX-License-Identifier: MIT\r\n\r\npragma solidity >=0.6.6 <0.9.0;\r\n\r\nimport \"@openzeppelin/contracts/access/Ownable.sol\";\r\ncontract Donation is Ownable {\r\n    mapping(address => uint) public donationByAddress;\r\n    uint256 public totalDonated;\r\n    \r\n    constructor() {\r\n        totalDonated = 0;\r\n    }\r\n\r\n    function fund() public payable {\r\n        donationByAddress[msg.sender] += msg.value;\r\n        totalDonated += msg.value;\r\n    }\r\n\r\n    function getBalance() public view returns (uint) {\r\n        return address(this).balance;\r\n    }\r\n\r\n    function withdraw() payable onlyOwner public {\r\n        (bool sent, bytes memory data) = msg.sender.call{value: address(this).balance}(\"\");\r\n        require(sent, \"Failed to withdraw\");\r\n    }\r\n}\r\n",
  "sourcePath": "C:\\Users\\Gabriel\\Documents\\learning-blockchain\\fundme-web3\\contracts\\Donation.sol",
  "compiler": {
    "name": "solc",
    "version": "0.8.9+commit.e5eed63a.Emscripten.clang"
  },
  "schemaVersion": "3.4.3",
  "updatedAt": "2021-10-06T15:19:31.149Z",
  "networkType": "ethereum",
  "devdoc": {
    "kind": "dev",
    "methods": {
      "owner()": {
        "details": "Returns the address of the current owner."
      },
      "renounceOwnership()": {
        "details": "Leaves the contract without owner. It will not be possible to call `onlyOwner` functions anymore. Can only be called by the current owner. NOTE: Renouncing ownership will leave the contract without an owner, thereby removing any functionality that is only available to the owner."
      },
      "transferOwnership(address)": {
        "details": "Transfers ownership of the contract to a new account (`newOwner`). Can only be called by the current owner."
      }
    },
    "version": 1
  },
  "userdoc": {
    "kind": "user",
    "methods": {},
    "version": 1
  }
}